{
  "_format": "hh-sol-artifact-1",
  "contractName": "ValidatorPool",
  "sourceName": "contracts/ValidatorPool.sol",
  "abi": [
    {
      "inputs": [
        {
          "internalType": "address",
          "name": "_stakeToken",
          "type": "address"
        }
      ],
      "stateMutability": "nonpayable",
      "type": "constructor"
    },
    {
      "inputs": [],
      "name": "AlreadyFinalized",
      "type": "error"
    },
    {
      "inputs": [],
      "name": "AlreadyValidator",
      "type": "error"
    },
    {
      "inputs": [],
      "name": "AlreadyVoted",
      "type": "error"
    },
    {
      "inputs": [],
      "name": "DisputeNotFound",
      "type": "error"
    },
    {
      "inputs": [],
      "name": "InsufficientStake",
      "type": "error"
    },
    {
      "inputs": [],
      "name": "NotAdmin",
      "type": "error"
    },
    {
      "inputs": [],
      "name": "NotEnoughVotes",
      "type": "error"
    },
    {
      "inputs": [],
      "name": "NotValidator",
      "type": "error"
    },
    {
      "inputs": [],
      "name": "OnlyEscrow",
      "type": "error"
    },
    {
      "inputs": [],
      "name": "ReentrancyGuardReentrantCall",
      "type": "error"
    },
    {
      "inputs": [
        {
          "internalType": "address",
          "name": "token",
          "type": "address"
        }
      ],
      "name": "SafeERC20FailedOperation",
      "type": "error"
    },
    {
      "inputs": [],
      "name": "VoteWindowClosed",
      "type": "error"
    },
    {
      "inputs": [],
      "name": "VoteWindowOpen",
      "type": "error"
    },
    {
      "anonymous": false,
      "inputs": [
        {
          "indexed": true,
          "internalType": "uint256",
          "name": "disputeId",
          "type": "uint256"
        },
        {
          "indexed": false,
          "internalType": "bool",
          "name": "workerFavored",
          "type": "bool"
        },
        {
          "indexed": false,
          "internalType": "uint256",
          "name": "workerVotes",
          "type": "uint256"
        },
        {
          "indexed": false,
          "internalType": "uint256",
          "name": "agentVotes",
          "type": "uint256"
        }
      ],
      "name": "DisputeFinalized",
      "type": "event"
    },
    {
      "anonymous": false,
      "inputs": [
        {
          "indexed": true,
          "internalType": "uint256",
          "name": "disputeId",
          "type": "uint256"
        },
        {
          "indexed": true,
          "internalType": "uint256",
          "name": "taskId",
          "type": "uint256"
        },
        {
          "indexed": false,
          "internalType": "address",
          "name": "escrow",
          "type": "address"
        }
      ],
      "name": "DisputeOpened",
      "type": "event"
    },
    {
      "anonymous": false,
      "inputs": [
        {
          "indexed": true,
          "internalType": "address",
          "name": "validator",
          "type": "address"
        },
        {
          "indexed": false,
          "internalType": "uint256",
          "name": "amount",
          "type": "uint256"
        }
      ],
      "name": "RewardPaid",
      "type": "event"
    },
    {
      "anonymous": false,
      "inputs": [
        {
          "indexed": true,
          "internalType": "address",
          "name": "validator",
          "type": "address"
        },
        {
          "indexed": false,
          "internalType": "uint256",
          "name": "amount",
          "type": "uint256"
        }
      ],
      "name": "Slashed",
      "type": "event"
    },
    {
      "anonymous": false,
      "inputs": [
        {
          "indexed": true,
          "internalType": "address",
          "name": "validator",
          "type": "address"
        },
        {
          "indexed": false,
          "internalType": "uint256",
          "name": "stake",
          "type": "uint256"
        }
      ],
      "name": "ValidatorRegistered",
      "type": "event"
    },
    {
      "anonymous": false,
      "inputs": [
        {
          "indexed": true,
          "internalType": "address",
          "name": "validator",
          "type": "address"
        },
        {
          "indexed": false,
          "internalType": "uint256",
          "name": "amount",
          "type": "uint256"
        }
      ],
      "name": "ValidatorUnstaked",
      "type": "event"
    },
    {
      "anonymous": false,
      "inputs": [
        {
          "indexed": true,
          "internalType": "uint256",
          "name": "disputeId",
          "type": "uint256"
        },
        {
          "indexed": true,
          "internalType": "address",
          "name": "validator",
          "type": "address"
        },
        {
          "indexed": false,
          "internalType": "enum ValidatorPool.Vote",
          "name": "vote",
          "type": "uint8"
        }
      ],
      "name": "Voted",
      "type": "event"
    },
    {
      "inputs": [],
      "name": "MIN_STAKE",
      "outputs": [
        {
          "internalType": "uint256",
          "name": "",
          "type": "uint256"
        }
      ],
      "stateMutability": "view",
      "type": "function"
    },
    {
      "inputs": [],
      "name": "MIN_VOTES",
      "outputs": [
        {
          "internalType": "uint256",
          "name": "",
          "type": "uint256"
        }
      ],
      "stateMutability": "view",
      "type": "function"
    },
    {
      "inputs": [],
      "name": "REWARD_BPS",
      "outputs": [
        {
          "internalType": "uint256",
          "name": "",
          "type": "uint256"
        }
      ],
      "stateMutability": "view",
      "type": "function"
    },
    {
      "inputs": [],
      "name": "SLASH_BPS",
      "outputs": [
        {
          "internalType": "uint256",
          "name": "",
          "type": "uint256"
        }
      ],
      "stateMutability": "view",
      "type": "function"
    },
    {
      "inputs": [],
      "name": "VOTE_WINDOW",
      "outputs": [
        {
          "internalType": "uint256",
          "name": "",
          "type": "uint256"
        }
      ],
      "stateMutability": "view",
      "type": "function"
    },
    {
      "inputs": [],
      "name": "activeValidatorCount",
      "outputs": [
        {
          "internalType": "uint256",
          "name": "count",
          "type": "uint256"
        }
      ],
      "stateMutability": "view",
      "type": "function"
    },
    {
      "inputs": [],
      "name": "admin",
      "outputs": [
        {
          "internalType": "address",
          "name": "",
          "type": "address"
        }
      ],
      "stateMutability": "view",
      "type": "function"
    },
    {
      "inputs": [
        {
          "internalType": "uint256",
          "name": "",
          "type": "uint256"
        }
      ],
      "name": "disputes",
      "outputs": [
        {
          "internalType": "uint256",
          "name": "taskId",
          "type": "uint256"
        },
        {
          "internalType": "address",
          "name": "escrow",
          "type": "address"
        },
        {
          "internalType": "address",
          "name": "token",
          "type": "address"
        },
        {
          "internalType": "uint256",
          "name": "amount",
          "type": "uint256"
        },
        {
          "internalType": "uint256",
          "name": "openedAt",
          "type": "uint256"
        },
        {
          "internalType": "bool",
          "name": "finalized",
          "type": "bool"
        },
        {
          "internalType": "bool",
          "name": "workerFavored",
          "type": "bool"
        },
        {
          "internalType": "uint256",
          "name": "workerVotes",
          "type": "uint256"
        },
        {
          "internalType": "uint256",
          "name": "agentVotes",
          "type": "uint256"
        }
      ],
      "stateMutability": "view",
      "type": "function"
    },
    {
      "inputs": [
        {
          "internalType": "uint256",
          "name": "disputeId",
          "type": "uint256"
        }
      ],
      "name": "finalizeDispute",
      "outputs": [],
      "stateMutability": "nonpayable",
      "type": "function"
    },
    {
      "inputs": [
        {
          "internalType": "uint256",
          "name": "disputeId",
          "type": "uint256"
        }
      ],
      "name": "getDispute",
      "outputs": [
        {
          "internalType": "uint256",
          "name": "taskId",
          "type": "uint256"
        },
        {
          "internalType": "address",
          "name": "escrow",
          "type": "address"
        },
        {
          "internalType": "uint256",
          "name": "amount",
          "type": "uint256"
        },
        {
          "internalType": "uint256",
          "name": "openedAt",
          "type": "uint256"
        },
        {
          "internalType": "bool",
          "name": "finalized",
          "type": "bool"
        },
        {
          "internalType": "bool",
          "name": "workerFavored",
          "type": "bool"
        },
        {
          "internalType": "uint256",
          "name": "workerVotes",
          "type": "uint256"
        },
        {
          "internalType": "uint256",
          "name": "agentVotes",
          "type": "uint256"
        }
      ],
      "stateMutability": "view",
      "type": "function"
    },
    {
      "inputs": [
        {
          "internalType": "uint256",
          "name": "disputeId",
          "type": "uint256"
        },
        {
          "internalType": "address",
          "name": "validator",
          "type": "address"
        }
      ],
      "name": "getVote",
      "outputs": [
        {
          "internalType": "enum ValidatorPool.Vote",
          "name": "",
          "type": "uint8"
        }
      ],
      "stateMutability": "view",
      "type": "function"
    },
    {
      "inputs": [],
      "name": "nextDisputeId",
      "outputs": [
        {
          "internalType": "uint256",
          "name": "",
          "type": "uint256"
        }
      ],
      "stateMutability": "view",
      "type": "function"
    },
    {
      "inputs": [
        {
          "internalType": "uint256",
          "name": "taskId",
          "type": "uint256"
        },
        {
          "internalType": "address",
          "name": "token",
          "type": "address"
        },
        {
          "internalType": "uint256",
          "name": "amount",
          "type": "uint256"
        }
      ],
      "name": "openDispute",
      "outputs": [
        {
          "internalType": "uint256",
          "name": "disputeId",
          "type": "uint256"
        }
      ],
      "stateMutability": "nonpayable",
      "type": "function"
    },
    {
      "inputs": [
        {
          "internalType": "uint256",
          "name": "amount",
          "type": "uint256"
        }
      ],
      "name": "register",
      "outputs": [],
      "stateMutability": "nonpayable",
      "type": "function"
    },
    {
      "inputs": [],
      "name": "stakeToken",
      "outputs": [
        {
          "internalType": "contract IERC20",
          "name": "",
          "type": "address"
        }
      ],
      "stateMutability": "view",
      "type": "function"
    },
    {
      "inputs": [
        {
          "internalType": "uint256",
          "name": "",
          "type": "uint256"
        }
      ],
      "name": "taskDispute",
      "outputs": [
        {
          "internalType": "uint256",
          "name": "",
          "type": "uint256"
        }
      ],
      "stateMutability": "view",
      "type": "function"
    },
    {
      "inputs": [],
      "name": "unstake",
      "outputs": [],
      "stateMutability": "nonpayable",
      "type": "function"
    },
    {
      "inputs": [
        {
          "internalType": "uint256",
          "name": "",
          "type": "uint256"
        }
      ],
      "name": "validatorList",
      "outputs": [
        {
          "internalType": "address",
          "name": "",
          "type": "address"
        }
      ],
      "stateMutability": "view",
      "type": "function"
    },
    {
      "inputs": [
        {
          "internalType": "address",
          "name": "",
          "type": "address"
        }
      ],
      "name": "validators",
      "outputs": [
        {
          "internalType": "uint256",
          "name": "stake",
          "type": "uint256"
        },
        {
          "internalType": "bool",
          "name": "active",
          "type": "bool"
        },
        {
          "internalType": "uint256",
          "name": "totalVotes",
          "type": "uint256"
        },
        {
          "internalType": "uint256",
          "name": "correctVotes",
          "type": "uint256"
        }
      ],
      "stateMutability": "view",
      "type": "function"
    },
    {
      "inputs": [
        {
          "internalType": "uint256",
          "name": "disputeId",
          "type": "uint256"
        },
        {
          "internalType": "enum ValidatorPool.Vote",
          "name": "voteFor",
          "type": "uint8"
        }
      ],
      "name": "vote",
      "outputs": [],
      "stateMutability": "nonpayable",
      "type": "function"
    }
  ],
  "bytecode": "0x60a06040526001600355348015610014575f80fd5b5060405161135338038061135383398101604081905261003391610079565b60017f9b779b17422d0df92223018b32b4d1fa46e071723d6817e2486d003becc55f00556001600160a01b03166080525f80546001600160a01b031916331790556100a6565b5f60208284031215610089575f80fd5b81516001600160a01b038116811461009f575f80fd5b9392505050565b6080516112876100cc5f395f818161018c015281816105b20152610dd601526112875ff3fe608060405234801561000f575f80fd5b5060043610610127575f3560e01c80636cac7388116100a9578063cb1c2b5c1161006e578063cb1c2b5c14610304578063e3a96cbd14610314578063f207564e146103bb578063f851a440146103ce578063fa52c7d8146103e0575f80fd5b80636cac738814610296578063933cd8de146102b5578063943e8216146102be578063b048e056146102d1578063bc3f931f146102e4575f80fd5b8063469a78d2116100ef578063469a78d21461017457806347b12bfc1461017e57806351ed6a3014610187578063564a565d146101c657806356989a8314610283575f80fd5b8063067369461461012b5780630db3993414610146578063210fd6c11461014f5780632340e8d3146101625780632def66201461016a575b5f80fd5b610133600381565b6040519081526020015b60405180910390f35b61013360035481565b61013361015d366004611097565b610439565b6101336104eb565b610172610557565b005b6101336202a30081565b6101336101f481565b6101ae7f000000000000000000000000000000000000000000000000000000000000000081565b6040516001600160a01b03909116815260200161013d565b61022f6101d43660046110c9565b600460208190525f91825260409091208054600182015460028301546003840154948401546005850154600686015460079096015494966001600160a01b03948516969390941694919260ff80831693610100909304169189565b60408051998a526001600160a01b0398891660208b0152969097169588019590955260608701939093526080860191909152151560a0850152151560c084015260e08301526101008201526101200161013d565b6101726102913660046110c9565b610628565b6101336102a43660046110c9565b60056020525f908152604090205481565b6101336103e881565b6101726102cc3660046110e0565b610b21565b6101ae6102df3660046110c9565b610d0c565b6102f76102f2366004611111565b610d34565b60405161013d919061114f565b61013368056bc75e2d6310000081565b6103746103223660046110c9565b5f908152600460208190526040909120805460018201546003830154938301546005840154600685015460079095015493966001600160a01b039093169594919360ff80831694610100909304169291565b604080519889526001600160a01b03909716602089015295870194909452606086019290925215156080850152151560a084015260c083015260e08201526101000161013d565b6101726103c93660046110c9565b610d63565b5f546101ae906001600160a01b031681565b6104196103ee366004611175565b600160208190525f9182526040909120805491810154600282015460039092015460ff909116919084565b60408051948552921515602085015291830152606082015260800161013d565b600380545f9182610449836111a9565b909155505f818152600460208181526040808420898155600181018054336001600160a01b031991821681179092556002830180549091166001600160a01b038c161790556003820189905542948201949094558985526005835293819020859055519182529293509091869184917fc6fb55a2bd2838e444163cece1945a661c371c5ec8c1a4ea5d697aefc7690547910160405180910390a3509392505050565b5f805b6002548110156105535760015f6002838154811061050e5761050e6111c1565b5f9182526020808320909101546001600160a01b0316835282019290925260400190206001015460ff161561054b5781610547816111a9565b9250505b6001016104ee565b5090565b61055f610ee8565b335f9081526001602081905260409091209081015460ff1661059457604051632ec5b44960e01b815260040160405180910390fd5b80545f825560018201805460ff191690556105d96001600160a01b037f0000000000000000000000000000000000000000000000000000000000000000163383610f03565b60405181815233907f0e9a2d5c9c9e68a955bcad9f9d834d70fba138442adf13dec6d6588838197a599060200160405180910390a2505061062660015f8051602061123283398151915255565b565b610630610ee8565b5f8181526004602081905260408220908101549091036106635760405163084a15e160e31b815260040160405180910390fd5b600581015460ff16156106895760405163475a253560e01b815260040160405180910390fd5b6202a300816004015461069c91906111d5565b42116106bb57604051639077128d60e01b815260040160405180910390fd5b5f816007015482600601546106d091906111d5565b9050600381101561073c5760058201805460ff1916600117905560068201546007830154604080515f8152602081019390935282015283907f2acc1993545df8d1b3e8cc620fcf2b5bb7d532b197500fc5ca192eb811f0b3829060600160405180910390a25050610b08565b60078201546006830154600584018054610100939092101592830261ffff199092169190911760011790555f81610774576002610777565b60015b90505f805b60098601548110156108b8575f86600901828154811061079e5761079e6111c1565b5f918252602090912001546001600160a01b031690508360028111156107c6576107c661113b565b6001600160a01b0382165f90815260088901602052604090205460ff1660028111156107f4576107f461113b565b146108af576001600160a01b0381165f9081526001602052604081205461271090610822906103e8906111e8565b61082c91906111ff565b6001600160a01b0383165f9081526001602052604081208054929350839290919061085890849061121e565b90915550610868905081856111d5565b9350816001600160a01b03167f4ed05e9673c26d2ed44f7ef6a7f2942df0ee3b5e1e17db4b99f9dcd261a339cd826040516108a591815260200190565b60405180910390a2505b5060010161077c565b505f836108c95785600701546108cf565b85600601545b90505f811180156108df57505f82115b15610a4e575f6108ef82846111ff565b90505f5b6009880154811015610a4b575f886009018281548110610915576109156111c1565b5f918252602090912001546001600160a01b0316905085600281111561093d5761093d61113b565b6001600160a01b0382165f90815260088b01602052604090205460ff16600281111561096b5761096b61113b565b14801561097757505f83115b15610a17576001600160a01b0381165f90815260016020526040812080548592906109a39084906111d5565b90915550506001600160a01b0381165f9081526001602052604081206003018054916109ce836111a9565b9190505550806001600160a01b03167fe2403640ba68fed3a2f88b7557551d1993f84b99bb10ff833f0cf8db0c5e048684604051610a0e91815260200190565b60405180910390a25b6001600160a01b0381165f908152600160205260408120600201805491610a3d836111a9565b9091555050506001016108f3565b50505b60018601548654604051631a592f7160e11b8152600481019190915285151560248201526001600160a01b03909116906334b25ee2906044015f604051808303815f87803b158015610a9e575f80fd5b505af1158015610ab0573d5f803e3d5ffd5b5050506006870154600788015460408051881515815260208101939093528201528891507f2acc1993545df8d1b3e8cc620fcf2b5bb7d532b197500fc5ca192eb811f0b3829060600160405180910390a25050505050505b610b1e60015f8051602061123283398151915255565b50565b5f828152600460208190526040822090810154909103610b545760405163084a15e160e31b815260040160405180910390fd5b600581015460ff1615610b7a5760405163475a253560e01b815260040160405180910390fd5b6202a3008160040154610b8d91906111d5565b421115610bad57604051635dcebe1f60e11b815260040160405180910390fd5b335f908152600160208190526040909120015460ff16610be057604051632ec5b44960e01b815260040160405180910390fd5b335f90815260088201602052604081205460ff166002811115610c0557610c0561113b565b14610c2357604051637c9a1cf960e01b815260040160405180910390fd5b335f9081526008820160205260409020805483919060ff19166001836002811115610c5057610c5061113b565b0217905550600981018054600181810183555f92835260209092200180546001600160a01b03191633179055826002811115610c8e57610c8e61113b565b03610cae57600681018054905f610ca4836111a9565b9190505550610cc5565b600781018054905f610cbf836111a9565b91905055505b336001600160a01b0316837f094f80829c509370abb2d421a078ba5926755d3de25d021dacf7bbd19853f7a284604051610cff919061114f565b60405180910390a3505050565b60028181548110610d1b575f80fd5b5f918252602090912001546001600160a01b0316905081565b5f8281526004602090815260408083206001600160a01b038516845260080190915290205460ff165b92915050565b610d6b610ee8565b335f908152600160208190526040909120015460ff1615610d9f576040516320e8cb6760e21b815260040160405180910390fd5b68056bc75e2d63100000811015610dc9576040516378de4a6960e11b815260040160405180910390fd5b610dfe6001600160a01b037f000000000000000000000000000000000000000000000000000000000000000016333084610f42565b60408051608081018252828152600160208083018281525f848601818152606086018281523380845294869052878320965187559251868601805491151560ff19909216919091179055516002808701919091559151600390950194909455805492830181559092527f405787fa12a823e0f2b7631cc41b3ba8828b3321ca811111fa75cd3aa3bb5ace0180546001600160a01b0319168217905590517fb4a7f5c563a0e35593d156394ed681bdc9c39467d7d722749d23862c2e4b712c90610eca9084815260200190565b60405180910390a2610b1e60015f8051602061123283398151915255565b610ef0610f7e565b60025f8051602061123283398151915255565b610f108383836001610fad565b610f3d57604051635274afe760e01b81526001600160a01b03841660048201526024015b60405180910390fd5b505050565b610f5084848484600161100f565b610f7857604051635274afe760e01b81526001600160a01b0385166004820152602401610f34565b50505050565b5f805160206112328339815191525460020361062657604051633ee5aeb560e01b815260040160405180910390fd5b60405163a9059cbb60e01b5f8181526001600160a01b038616600452602485905291602083604481808b5af1925060015f51148316611003578383151615610ff7573d5f823e3d81fd5b5f873b113d1516831692505b60405250949350505050565b6040516323b872dd60e01b5f8181526001600160a01b038781166004528616602452604485905291602083606481808c5af1925060015f5114831661106b57838315161561105f573d5f823e3d81fd5b5f883b113d1516831692505b604052505f60605295945050505050565b80356001600160a01b0381168114611092575f80fd5b919050565b5f805f606084860312156110a9575f80fd5b833592506110b96020850161107c565b9150604084013590509250925092565b5f602082840312156110d9575f80fd5b5035919050565b5f80604083850312156110f1575f80fd5b82359150602083013560038110611106575f80fd5b809150509250929050565b5f8060408385031215611122575f80fd5b823591506111326020840161107c565b90509250929050565b634e487b7160e01b5f52602160045260245ffd5b602081016003831061116f57634e487b7160e01b5f52602160045260245ffd5b91905290565b5f60208284031215611185575f80fd5b61118e8261107c565b9392505050565b634e487b7160e01b5f52601160045260245ffd5b5f600182016111ba576111ba611195565b5060010190565b634e487b7160e01b5f52603260045260245ffd5b80820180821115610d5d57610d5d611195565b8082028115828204841417610d5d57610d5d611195565b5f8261121957634e487b7160e01b5f52601260045260245ffd5b500490565b81810381811115610d5d57610d5d61119556fe9b779b17422d0df92223018b32b4d1fa46e071723d6817e2486d003becc55f00a26469706673582212203d6d5d2d254d51d979d0843b8e8c871838569c5c1edb2fc981b7b8dc2470130664736f6c63430008180033",
  "linkReferences": {},
  "deployedLinkReferences": {}
}